{
  "contractName": "TasksContract",
  "abi": [
    {
      "anonymous": false,
      "inputs": [
        {
          "indexed": false,
          "internalType": "uint256",
          "name": "id",
          "type": "uint256"
        },
        {
          "indexed": false,
          "internalType": "string",
          "name": "title",
          "type": "string"
        },
        {
          "indexed": false,
          "internalType": "string",
          "name": "description",
          "type": "string"
        },
        {
          "indexed": false,
          "internalType": "bool",
          "name": "done",
          "type": "bool"
        },
        {
          "indexed": false,
          "internalType": "uint256",
          "name": "createdAt",
          "type": "uint256"
        }
      ],
      "name": "TaskCreated",
      "type": "event"
    },
    {
      "anonymous": false,
      "inputs": [
        {
          "indexed": false,
          "internalType": "uint256",
          "name": "id",
          "type": "uint256"
        },
        {
          "indexed": false,
          "internalType": "bool",
          "name": "done",
          "type": "bool"
        }
      ],
      "name": "TaskToggleDone",
      "type": "event"
    },
    {
      "inputs": [],
      "name": "taskCounter",
      "outputs": [
        {
          "internalType": "uint256",
          "name": "",
          "type": "uint256"
        }
      ],
      "stateMutability": "view",
      "type": "function",
      "constant": true
    },
    {
      "inputs": [
        {
          "internalType": "uint256",
          "name": "",
          "type": "uint256"
        }
      ],
      "name": "tasks",
      "outputs": [
        {
          "internalType": "uint256",
          "name": "id",
          "type": "uint256"
        },
        {
          "internalType": "string",
          "name": "title",
          "type": "string"
        },
        {
          "internalType": "string",
          "name": "description",
          "type": "string"
        },
        {
          "internalType": "bool",
          "name": "done",
          "type": "bool"
        },
        {
          "internalType": "uint256",
          "name": "createdAt",
          "type": "uint256"
        }
      ],
      "stateMutability": "view",
      "type": "function",
      "constant": true
    },
    {
      "inputs": [
        {
          "internalType": "string",
          "name": "_title",
          "type": "string"
        },
        {
          "internalType": "string",
          "name": "_description",
          "type": "string"
        }
      ],
      "name": "createTask",
      "outputs": [],
      "stateMutability": "nonpayable",
      "type": "function"
    },
    {
      "inputs": [
        {
          "internalType": "uint256",
          "name": "_id",
          "type": "uint256"
        }
      ],
      "name": "toggleDone",
      "outputs": [],
      "stateMutability": "nonpayable",
      "type": "function"
    }
  ],
  "bytecode": "0x60806040526000805534801561001457600080fd5b50610ad0806100246000396000f3fe608060405234801561001057600080fd5b506004361061004c5760003560e01c8063292a458514610051578063586717301461006d5780638d9776721461008b578063d81ef739146100bf575b600080fd5b61006b600480360381019061006691906106ba565b6100db565b005b6100756101e9565b60405161008291906107b6565b60405180910390f35b6100a560048036038101906100a09190610732565b6101ef565b6040516100b69594939291906107fa565b60405180910390f35b6100d960048036038101906100d49190610732565b610342565b005b6000808154809291906100ed90610988565b91905055506040518060a001604052806000548152602001838152602001828152602001600115158152602001428152506001600080548152602001908152602001600020600082015181600001556020820151816001019080519060200190610158929190610592565b506040820151816002019080519060200190610175929190610592565b5060608201518160030160006101000a81548160ff021916908315150217905550608082015181600401559050507f6549102bed7d1bb5ec529ee14e2ca60ffc1f47f66d4cc6ca713220613cc64c2560005483836001426040516101dd9594939291906107fa565b60405180910390a15050565b60005481565b600160205280600052604060002060009150905080600001549080600101805461021890610925565b80601f016020809104026020016040519081016040528092919081815260200182805461024490610925565b80156102915780601f1061026657610100808354040283529160200191610291565b820191906000526020600020905b81548152906001019060200180831161027457829003601f168201915b5050505050908060020180546102a690610925565b80601f01602080910402602001604051908101604052809291908181526020018280546102d290610925565b801561031f5780601f106102f45761010080835404028352916020019161031f565b820191906000526020600020905b81548152906001019060200180831161030257829003601f168201915b5050505050908060030160009054906101000a900460ff16908060040154905085565b6000600160008381526020019081526020016000206040518060a00160405290816000820154815260200160018201805461037c90610925565b80601f01602080910402602001604051908101604052809291908181526020018280546103a890610925565b80156103f55780601f106103ca576101008083540402835291602001916103f5565b820191906000526020600020905b8154815290600101906020018083116103d857829003601f168201915b5050505050815260200160028201805461040e90610925565b80601f016020809104026020016040519081016040528092919081815260200182805461043a90610925565b80156104875780601f1061045c57610100808354040283529160200191610487565b820191906000526020600020905b81548152906001019060200180831161046a57829003601f168201915b505050505081526020016003820160009054906101000a900460ff1615151515815260200160048201548152505090508060600151158160600190151590811515815250508060016000848152602001908152602001600020600082015181600001556020820151816001019080519060200190610506929190610592565b506040820151816002019080519060200190610523929190610592565b5060608201518160030160006101000a81548160ff021916908315150217905550608082015181600401559050507f389dee00d487dd41dd5bf0f43eeaa5b663b3af022d52368df89d388150295f458282606001516040516105869291906107d1565b60405180910390a15050565b82805461059e90610925565b90600052602060002090601f0160209004810192826105c05760008555610607565b82601f106105d957805160ff1916838001178555610607565b82800160010185558215610607579182015b828111156106065782518255916020019190600101906105eb565b5b5090506106149190610618565b5090565b5b80821115610631576000816000905550600101610619565b5090565b600061064861064384610880565b61085b565b90508281526020810184848401111561066457610663610a63565b5b61066f8482856108e3565b509392505050565b600082601f83011261068c5761068b610a5e565b5b813561069c848260208601610635565b91505092915050565b6000813590506106b481610a83565b92915050565b600080604083850312156106d1576106d0610a6d565b5b600083013567ffffffffffffffff8111156106ef576106ee610a68565b5b6106fb85828601610677565b925050602083013567ffffffffffffffff81111561071c5761071b610a68565b5b61072885828601610677565b9150509250929050565b60006020828403121561074857610747610a6d565b5b6000610756848285016106a5565b91505092915050565b610768816108cd565b82525050565b6000610779826108b1565b61078381856108bc565b93506107938185602086016108f2565b61079c81610a72565b840191505092915050565b6107b0816108d9565b82525050565b60006020820190506107cb60008301846107a7565b92915050565b60006040820190506107e660008301856107a7565b6107f3602083018461075f565b9392505050565b600060a08201905061080f60008301886107a7565b8181036020830152610821818761076e565b90508181036040830152610835818661076e565b9050610844606083018561075f565b61085160808301846107a7565b9695505050505050565b6000610865610876565b90506108718282610957565b919050565b6000604051905090565b600067ffffffffffffffff82111561089b5761089a610a2f565b5b6108a482610a72565b9050602081019050919050565b600081519050919050565b600082825260208201905092915050565b60008115159050919050565b6000819050919050565b82818337600083830152505050565b60005b838110156109105780820151818401526020810190506108f5565b8381111561091f576000848401525b50505050565b6000600282049050600182168061093d57607f821691505b6020821081141561095157610950610a00565b5b50919050565b61096082610a72565b810181811067ffffffffffffffff8211171561097f5761097e610a2f565b5b80604052505050565b6000610993826108d9565b91507fffffffffffffffffffffffffffffffffffffffffffffffffffffffffffffffff8214156109c6576109c56109d1565b5b600182019050919050565b7f4e487b7100000000000000000000000000000000000000000000000000000000600052601160045260246000fd5b7f4e487b7100000000000000000000000000000000000000000000000000000000600052602260045260246000fd5b7f4e487b7100000000000000000000000000000000000000000000000000000000600052604160045260246000fd5b600080fd5b600080fd5b600080fd5b600080fd5b6000601f19601f8301169050919050565b610a8c816108d9565b8114610a9757600080fd5b5056fea264697066735822122050dc3155550ac79b4853358c3a6b91bd1059e74b0be972c6ed56127a03b1ca0064736f6c63430008060033",
  "immutableReferences": {},
  "source": "// SPDX-License-Identifier: MIT\npragma solidity ^0.8.6;\n\ncontract TasksContract {\n\n    uint public taskCounter = 0;\n\n    // constructor () {\n    //     createTask(\"Mi primera tarea de ejemplo\", \"Tengo que hacer algo\");\n    // }\n\n    event TaskCreated(\n        uint id,\n        string title,\n        string description,\n        bool done,\n        uint createdAt\n    );\n\n    event TaskToggleDone(uint id, bool done);\n\n    struct Task {\n        uint256 id;\n        string title;\n        string description;\n        bool done;\n        uint256 createdAt;\n    }\n\n    mapping (uint256 => Task) public tasks;\n\n    function createTask(string memory _title, string memory _description) public {\n        taskCounter++;\n        tasks[taskCounter] = Task(taskCounter, _title, _description, true, block.timestamp);\n        emit TaskCreated(taskCounter, _title, _description, true, block.timestamp);\n    }\n\n    function toggleDone(uint _id) public {\n        Task memory _task = tasks[_id];\n        _task.done = !_task.done;\n        tasks[_id] = _task;\n        emit TaskToggleDone(_id, _task.done);\n    }\n}\n",
  "sourcePath": "/Users/juan/Documents/GitHub/TFG-Solidity/myfirtscontract/contracts/TasksContract.sol",
  "compiler": {
    "name": "solc",
    "version": "0.8.6+commit.11564f7e.Emscripten.clang"
  },
  "schemaVersion": "3.4.3",
  "updatedAt": "2022-03-28T17:52:43.124Z",
  "networkType": "ethereum",
  "devdoc": {
    "kind": "dev",
    "methods": {},
    "version": 1
  },
  "userdoc": {
    "kind": "user",
    "methods": {},
    "version": 1
  }
}