{
  "contractName": "InvestmentsContract",
  "abi": [
    {
      "anonymous": false,
      "inputs": [
        {
          "indexed": false,
          "internalType": "uint256",
          "name": "id",
          "type": "uint256"
        },
        {
          "indexed": false,
          "internalType": "string",
          "name": "title",
          "type": "string"
        },
        {
          "indexed": false,
          "internalType": "string",
          "name": "amount",
          "type": "string"
        },
        {
          "indexed": false,
          "internalType": "string",
          "name": "time",
          "type": "string"
        },
        {
          "indexed": false,
          "internalType": "bool",
          "name": "done",
          "type": "bool"
        },
        {
          "indexed": false,
          "internalType": "uint256",
          "name": "createdAt",
          "type": "uint256"
        }
      ],
      "name": "InvestmentCreated",
      "type": "event"
    },
    {
      "anonymous": false,
      "inputs": [
        {
          "indexed": false,
          "internalType": "uint256",
          "name": "id",
          "type": "uint256"
        },
        {
          "indexed": false,
          "internalType": "bool",
          "name": "done",
          "type": "bool"
        }
      ],
      "name": "InvestmentToggleDone",
      "type": "event"
    },
    {
      "inputs": [],
      "name": "investmentCounter",
      "outputs": [
        {
          "internalType": "uint256",
          "name": "",
          "type": "uint256"
        }
      ],
      "stateMutability": "view",
      "type": "function",
      "constant": true
    },
    {
      "inputs": [
        {
          "internalType": "uint256",
          "name": "",
          "type": "uint256"
        }
      ],
      "name": "investments",
      "outputs": [
        {
          "internalType": "uint256",
          "name": "id",
          "type": "uint256"
        },
        {
          "internalType": "string",
          "name": "title",
          "type": "string"
        },
        {
          "internalType": "string",
          "name": "amount",
          "type": "string"
        },
        {
          "internalType": "string",
          "name": "time",
          "type": "string"
        },
        {
          "internalType": "bool",
          "name": "done",
          "type": "bool"
        },
        {
          "internalType": "uint256",
          "name": "createdAt",
          "type": "uint256"
        }
      ],
      "stateMutability": "view",
      "type": "function",
      "constant": true
    },
    {
      "inputs": [
        {
          "internalType": "string",
          "name": "_title",
          "type": "string"
        },
        {
          "internalType": "string",
          "name": "_time",
          "type": "string"
        },
        {
          "internalType": "string",
          "name": "_amount",
          "type": "string"
        }
      ],
      "name": "createInvestment",
      "outputs": [],
      "stateMutability": "nonpayable",
      "type": "function"
    },
    {
      "inputs": [
        {
          "internalType": "uint256",
          "name": "_id",
          "type": "uint256"
        }
      ],
      "name": "toggleDone",
      "outputs": [],
      "stateMutability": "nonpayable",
      "type": "function"
    }
  ],
  "bytecode": "0x60806040526000805534801561001457600080fd5b50610c78806100246000396000f3fe608060405234801561001057600080fd5b506004361061004c5760003560e01c8063653d584d146100515780637994c1a11461006d578063d81ef7391461008b578063fd345c8a146100a7575b600080fd5b61006b6004803603810190610066919061081e565b6100dc565b005b610075610210565b6040516100829190610949565b60405180910390f35b6100a560048036038101906100a091906108c5565b610216565b005b6100c160048036038101906100bc91906108c5565b610515565b6040516100d39695949392919061098d565b60405180910390f35b6000808154809291906100ee90610b30565b91905055506040518060c00160405280600054815260200184815260200182815260200183815260200160011515815260200142815250600160008054815260200190815260200160002060008201518160000155602082015181600101908051906020019061015f9291906106f6565b50604082015181600201908051906020019061017c9291906106f6565b5060608201518160030190805190602001906101999291906106f6565b5060808201518160040160006101000a81548160ff02191690831515021790555060a082015181600501559050507fac28c42ae360f8dc94550fc2a93b5d8fafa156ee0a1dc081cec20653c1fe80996000548483856001426040516102039695949392919061098d565b60405180910390a1505050565b60005481565b6000600160008381526020019081526020016000206040518060c00160405290816000820154815260200160018201805461025090610acd565b80601f016020809104026020016040519081016040528092919081815260200182805461027c90610acd565b80156102c95780601f1061029e576101008083540402835291602001916102c9565b820191906000526020600020905b8154815290600101906020018083116102ac57829003601f168201915b505050505081526020016002820180546102e290610acd565b80601f016020809104026020016040519081016040528092919081815260200182805461030e90610acd565b801561035b5780601f106103305761010080835404028352916020019161035b565b820191906000526020600020905b81548152906001019060200180831161033e57829003601f168201915b5050505050815260200160038201805461037490610acd565b80601f01602080910402602001604051908101604052809291908181526020018280546103a090610acd565b80156103ed5780601f106103c2576101008083540402835291602001916103ed565b820191906000526020600020905b8154815290600101906020018083116103d057829003601f168201915b505050505081526020016004820160009054906101000a900460ff161515151581526020016005820154815250509050806080015115816080019015159081151581525050806001600084815260200190815260200160002060008201518160000155602082015181600101908051906020019061046c9291906106f6565b5060408201518160020190805190602001906104899291906106f6565b5060608201518160030190805190602001906104a69291906106f6565b5060808201518160040160006101000a81548160ff02191690831515021790555060a082015181600501559050507febc9e0f249cd5ab51a4f584edf891a1d1c47da7154bb89f6b27753d9b1af1eef828260800151604051610509929190610964565b60405180910390a15050565b600160205280600052604060002060009150905080600001549080600101805461053e90610acd565b80601f016020809104026020016040519081016040528092919081815260200182805461056a90610acd565b80156105b75780601f1061058c576101008083540402835291602001916105b7565b820191906000526020600020905b81548152906001019060200180831161059a57829003601f168201915b5050505050908060020180546105cc90610acd565b80601f01602080910402602001604051908101604052809291908181526020018280546105f890610acd565b80156106455780601f1061061a57610100808354040283529160200191610645565b820191906000526020600020905b81548152906001019060200180831161062857829003601f168201915b50505050509080600301805461065a90610acd565b80601f016020809104026020016040519081016040528092919081815260200182805461068690610acd565b80156106d35780601f106106a8576101008083540402835291602001916106d3565b820191906000526020600020905b8154815290600101906020018083116106b657829003601f168201915b5050505050908060040160009054906101000a900460ff16908060050154905086565b82805461070290610acd565b90600052602060002090601f016020900481019282610724576000855561076b565b82601f1061073d57805160ff191683800117855561076b565b8280016001018555821561076b579182015b8281111561076a57825182559160200191906001019061074f565b5b509050610778919061077c565b5090565b5b8082111561079557600081600090555060010161077d565b5090565b60006107ac6107a784610a28565b610a03565b9050828152602081018484840111156107c8576107c7610c0b565b5b6107d3848285610a8b565b509392505050565b600082601f8301126107f0576107ef610c06565b5b8135610800848260208601610799565b91505092915050565b60008135905061081881610c2b565b92915050565b60008060006060848603121561083757610836610c15565b5b600084013567ffffffffffffffff81111561085557610854610c10565b5b610861868287016107db565b935050602084013567ffffffffffffffff81111561088257610881610c10565b5b61088e868287016107db565b925050604084013567ffffffffffffffff8111156108af576108ae610c10565b5b6108bb868287016107db565b9150509250925092565b6000602082840312156108db576108da610c15565b5b60006108e984828501610809565b91505092915050565b6108fb81610a75565b82525050565b600061090c82610a59565b6109168185610a64565b9350610926818560208601610a9a565b61092f81610c1a565b840191505092915050565b61094381610a81565b82525050565b600060208201905061095e600083018461093a565b92915050565b6000604082019050610979600083018561093a565b61098660208301846108f2565b9392505050565b600060c0820190506109a2600083018961093a565b81810360208301526109b48188610901565b905081810360408301526109c88187610901565b905081810360608301526109dc8186610901565b90506109eb60808301856108f2565b6109f860a083018461093a565b979650505050505050565b6000610a0d610a1e565b9050610a198282610aff565b919050565b6000604051905090565b600067ffffffffffffffff821115610a4357610a42610bd7565b5b610a4c82610c1a565b9050602081019050919050565b600081519050919050565b600082825260208201905092915050565b60008115159050919050565b6000819050919050565b82818337600083830152505050565b60005b83811015610ab8578082015181840152602081019050610a9d565b83811115610ac7576000848401525b50505050565b60006002820490506001821680610ae557607f821691505b60208210811415610af957610af8610ba8565b5b50919050565b610b0882610c1a565b810181811067ffffffffffffffff82111715610b2757610b26610bd7565b5b80604052505050565b6000610b3b82610a81565b91507fffffffffffffffffffffffffffffffffffffffffffffffffffffffffffffffff821415610b6e57610b6d610b79565b5b600182019050919050565b7f4e487b7100000000000000000000000000000000000000000000000000000000600052601160045260246000fd5b7f4e487b7100000000000000000000000000000000000000000000000000000000600052602260045260246000fd5b7f4e487b7100000000000000000000000000000000000000000000000000000000600052604160045260246000fd5b600080fd5b600080fd5b600080fd5b600080fd5b6000601f19601f8301169050919050565b610c3481610a81565b8114610c3f57600080fd5b5056fea2646970667358221220b21cb181e94221a285c8c4960faf36613b231bfb022ba5f4f4d3c306b3e42aa364736f6c63430008060033",
  "immutableReferences": {},
  "source": "// SPDX-License-Identifier: MIT\npragma solidity ^0.8.6;\n\ncontract InvestmentsContract {\n\n    uint public investmentCounter = 0;\n\n    event InvestmentCreated(\n        uint id,\n        string title,\n        string amount,\n        string time,\n        bool done,\n        uint createdAt\n    );\n\n    event InvestmentToggleDone(uint id, bool done);\n\n    struct Investment {\n        uint256 id;\n        string title;\n        string amount;\n        string time;\n        bool done;\n        uint256 createdAt;\n    }\n\n    mapping (uint256 => Investment) public investments;\n\n    function createInvestment(string memory _title, string memory _time, string memory _amount) public {\n        investmentCounter++;\n        investments[investmentCounter] = Investment(investmentCounter, _title, _amount, _time, true, block.timestamp);\n        emit InvestmentCreated(investmentCounter, _title, _amount, _time, true, block.timestamp);\n    }\n\n    function toggleDone(uint _id) public {\n        Investment memory _investment = investments[_id];\n        _investment.done = !_investment.done;\n        investments[_id] = _investment;\n        emit InvestmentToggleDone(_id, _investment.done);\n    }\n}\n",
  "sourcePath": "/Users/juan/Documents/GitHub/TFG-Solidity/contracts/InvestmentsContract.sol",
  "compiler": {
    "name": "solc",
    "version": "0.8.6+commit.11564f7e.Emscripten.clang"
  },
  "schemaVersion": "3.4.3",
  "updatedAt": "2022-04-20T16:07:46.843Z",
  "networkType": "ethereum",
  "devdoc": {
    "kind": "dev",
    "methods": {},
    "version": 1
  },
  "userdoc": {
    "kind": "user",
    "methods": {},
    "version": 1
  }
}